:020000040800F2
:1000000080520020F902000843270008A1240008BC
:100010004127000859070008D12C00080000000003
:10002000000000000000000000000000390200088D
:10003000FD0700080000000095020008E527000801
:10004000130300081303000813030008D127000856
:100050001303000813030008130300081303000828
:100060001303000813030008130300081303000818
:100070001303000813030008130300081303000808
:100080001303000813030008130300080000000016
:100090000000000000000000000000001303000842
:1000A00013030008A5280008130300081303000821
:1000B00013030008130300081303000813030008C8
:1000C00013030008130300081303000813030008B8
:1000D00013030008C52C00081303000800000000EB
:1000E00013030008130300081303000800000000B6
:1000F00000000000000000000000000013030008E2
:100100000000000013030008130300081303000895
:1001100000000000000000000000000000000000DF
:1001200013030008130300085D0700081303000809
:1001300013030008000000000000000000000000A1
:100140000000000000000000000000001303000891
:100150006907000813030008750700081303000867
:100160001303000813030008000000000000000053
:10017000000000000000000000000000000000007F
:100180000000000013030008000000000000000051
:10019000130300081303000800F002F800F03CF815
:1001A0000AA090E8000C82448344AAF10107DA45D2
:1001B00001D100F031F8AFF2090EBAE80F0013F0E8
:1001C000010F18BFFB1A43F00103184798430000C2
:1001D000B8430000103A24BF78C878C1FAD8520753
:1001E00024BF30C830C144BF04680C6070470000B1
:1001F0000023002400250026103A28BF78C1FBD830
:10020000520728BF30C148BF0B6070471FB504F0CC
:100210007BF91FBD10B510BD00F0D0F91146FFF7F6
:10022000F5FF02F066FD00F0EEF903B4FFF7F2FF10
:1002300003BC00F0F5F900002C4B19680868B0E821
:10024000F04F80F30988BFF36F8F4FF0000080F309
:10025000118870470000000008480068006880F3BB
:1002600008884FF0000080F3148862B661B6BFF3CF
:100270004F8FBFF36F8F00DF00BF00BF08ED00E0BE
:10028000DFF80C00016841F470010160704700BFA5
:1002900088ED00E0EFF30980BFF36F8F134B1A680E
:1002A0001EF0100F08BF20ED108A20E9F04F1060FB
:1002B00009B44FF0500080F31188BFF34F8FBFF3A4
:1002C0006F8F03F0EBFB4FF0000080F3118809BC47
:1002D00019680868B0E8F04F1EF0100F08BFB0ECC6
:1002E000108A80F30988BFF36F8F704714000020D5
:1002F000EFF3058070470000094880470948004730
:10030000FEE7FEE7FEE7FEE7FEE7FEE7FEE7FEE7C5
:10031000FEE7FEE704480549054A064B7047000022
:100320009528000899010008804C00208052002088
:10033000804E0020804E002053EA020C00F06980BD
:100340002DE9F04B4FF00006002B1FBFB3FA83F5E9
:1003500003FA05F424FA05F65E4012BF1643B2FA1A
:1003600082F502FA05F4C5F120051EBF22FA05FC4C
:1003700044EA0C04203556EA044C4FEA144418BFF2
:10038000641C4FF000084FF00009904271EB030C21
:1003900039D3002919BFB1FA81F701FA07F6B0FA8B
:1003A00080F700FA07F6C7F120071EBF20FA07FC06
:1003B00046EA0C062037B6FBF4FCA7EB0507103F16
:1003C00007F01F0BCBF120060CFA0BFB2CFA06F6FC
:1003D00044BFB3460026202FA4BF5E464FF0000B5B
:1003E0005BEA060C08BF4FF0010B19EB0B09ABFBE6
:1003F000027C48EB0608C01B06FB02CC0BFB03CCBF
:1004000071EB0C01C1E70B46024641464846BDE888
:10041000F08B13B54FF000004FF00001AFF30080F8
:10042000BDE81C407047032A40F2308010F0030CF6
:1004300000F0158011F8013BBCF1020F624498BF37
:1004400011F801CB00F8013B38BF11F8013BA2F1D4
:10045000040298BF00F801CB38BF00F8013B11F04F
:10046000030300F05780083AC0F0088051F8043BBD
:10047000083A51F804CBA0E80810F5E7121D5CBF5C
:1004800051F8043B40F8043BAFF30080D20724BF8F
:1004900011F8013B11F801CB48BF11F8012B24BF23
:1004A00000F8013B00F801CB48BF00F8012B704772
:1004B00002F0FF0343EA032242EA024200F05EB880
:1004C0004FF0000200B5134694469646203922BFED
:1004D000A0E80C50A0E80C50B1F12001BFF4F7AF38
:1004E000090728BFA0E80C5048BF0CC05DF804EB1A
:1004F000890028BF40F8042B08BF704748BF20F888
:10050000022B11F0804F18BF00F8012B7047704785
:100510007047704710B5203AC0F00B80B1E8185012
:10052000203AA0E81850B1E81850A0E81850BFF4DD
:10053000F5AF5FEA027C24BFB1E81850A0E818507C
:1005400044BF18C918C0BDE810405FEA827C24BFD0
:1005500051F8043B40F8043B08BF7047D20728BF5E
:1005600031F8023B48BF11F8012B28BF20F8023BAD
:1005700048BF00F8012B70474FF000020429C0F07B
:10058000128010F0030C3FF49DAFCCF1040CBCF1D1
:10059000020F18BF00F8012BA8BF20F8022BA1EB17
:1005A0000C01FFF78FBF5FEAC17C24BF00F8012B6D
:1005B00000F8012B48BF00F8012B7047754600F08A
:1005C0002BF8AE4605006946534620F007008546E5
:1005D00018B020B5FFF79EFEBDE820404FF00006A2
:1005E0004FF000074FF000084FF0000B21F007011B
:1005F000AC46ACE8C009ACE8C009ACE8C009ACE85E
:10060000C0098D46704710B50446AFF30080204600
:10061000BDE81040FFF709BE00487047204C00209D
:1006200001491820ABBEFEE726000200704700001B
:10063000464910B54A6822F440324A604A68436825
:100640001A434A6001684A6822F480724A6001686D
:100650004A68036942EA03224A6001684A6822F054
:1006600040724A6001684A6883681A434A600168B8
:100670008A6822F400628A6001688A68C3681A4343
:100680008A60816A6FF07062D14201688A6822F0E4
:1006900070628A6001688A680CD0836A1A438A6033
:1006A00001688A6822F040528A6001688A68C36AD9
:1006B0001A4301E022F040528A6001688A6822F001
:1006C00002028A6001688A68037E42EA43028A6005
:1006D00090F82010002901684A680FD042F40062A7
:1006E0004A6001684A6822F460424A6001684A68C8
:1006F000174C436A04EB43331A4301E022F40062CF
:100700004A600168CA6A22F47002CA620168CA6A51
:10071000838B104C04EB03531A43CA6201688A6846
:1007200022F400728A6001688A6890F8303042EAE8
:1007300043228A6001688A6822F480628A600168C4
:100740008A68406942EA8020886010BD0023014029
:1007500000E0FFFF0000F0FFFEE70000014800F0AE
:10076000B9B9000054010020014800F0B3B90000FD
:1007700044020020014800F0ADB90000A4020020AE
:1007800001681823CAB2103AB2FBF3F2054B6FF3BB
:100790000901032A9B5CC36500D9091D81650846D0
:1007A000704700003845000810B5014600208B69ED
:1007B0008A6A4FF0C07453B1B3F5005F15D072B1BF
:1007C000012A0CD0022A0AD0032A09D104E01AB166
:1007D000012A06D0022A03D1C96AC90100D5012025
:1007E00010BDC96AA142FAD010BD002AF7D0012A73
:1007F000F2D0022AF3D0032AF3D010BD704772B6AC
:10080000FEE7000078B50024009490F83C20012A0F
:1008100019D0012280F83C200A6807230568092ABC
:1008200013D9EE680A3A02EB420293409E43EE600F
:100830000B788A680A3B03EB43039A400368DD6840
:100840002A43DA6010E0022078BD2E6902EB4202F2
:1008500093409E432E610B788A6803EB43039A40D2
:1008600003681D692A431A614A681F23072A13D2A5
:1008700005686E6B521E02EB820293409E436E63CC
:100880000A8893B20A79521E02EB820293400268F0
:10089000556B2B43536327E005680D2A12D22E6B4C
:1008A000D21F02EB820293409E432E630B790A888B
:1008B000DB1F92B203EB83039A4003681D6B2A434C
:1008C0001A6311E0EE6A0D3A02EB820293409E43F6
:1008D000EE620B790A880D3B92B203EB83039A40D8
:1008E0000368DD6A2A43DA621B4B0568194A9D4298
:1008F0000AD10D68122D07D1556825F40005556001
:10090000556845F48005556005689D421DD1134D1D
:100910000B68AB4201D0112B17D1536823F480032D
:100920005360536843F4000353600968A9420CD133
:100930000B490C4A0968B1FBF2F101EB8101490056
:1009400000E0491E00910029FBD180F83C400020C6
:1009500078BD00000023014000200140120000107B
:100960001000002040420F0070B504004FF0000559
:1009700003D0206C002610B107E0012070BD204696
:1009800000F01CF8666484F83C60206CC00610D44B
:10099000206C20F4885040F0020020642046FFF7CD
:1009A00047FE6664206C20F0020040F001002064E5
:1009B00000E0012584F83C60284670BD10B586B083
:1009C000044614216846FFF77BFD114920688842E0
:1009D0001CD110480021026842F480720260006855
:1009E00000F4807005900B481438026842F0010250
:1009F0000260006800F001000590022000900320D2
:100A0000CDE901016946044800F09EF906B010BD29
:100A10000020014044380240000002402DE9F0412E
:100A20000446876D00F080FA064694F835000025EC
:100A3000022806D08020606584F834500120BDE88B
:100A4000F0812068016821F0160101602068416989
:100A500021F080014161206C08B9A06C20B12068B0
:100A6000016821F0080101602068016821F001019E
:100A700001600CE000F058FA801B052807D92020FF
:100A80006065032084F8350084F83450D7E7206887
:100A90000068C007EED194F85C103F208840B86031
:100AA000012084F8350084F834500020C7E790F81E
:100AB0003510022903D080214165012070470521AE
:100AC00080F835100068016821F001010160002004
:100AD000704700002DE9F84304464FF00009CDF8B7
:100AE000009063484FF41651A56D0068B0FBF1F714
:100AF0002E6894F85C10082000FA01F131420FD002
:100B000021680A6852070BD50A6822F004020A60BD
:100B100094F85C108840A860606D40F0010060654A
:100B200094F85C104FF0010808FA01F0304208D048
:100B300021684969090604D5A860606D40F002008B
:100B4000606594F85C1004208840304208D0216829
:100B50000968890704D5A860606D40F004006065ED
:100B600094F85C1010208840304218D02168096841
:100B7000090714D5A86020680168490304D50068F6
:100B8000000308D5A16C07E00168C90503D401681A
:100B900021F008010160216C09B12046884794F8D2
:100BA0005C1020208840304231D021680968C90695
:100BB0002DD5A86094F8350005282068016806D076
:100BC000490347D5006800031DD4616C1CE021F087
:100BD000160101602068416921F080014161206CAB
:100BE00008B9A06C20B12068016821F008010160FB
:100BF00094F85C103F208840A86084F8358084F821
:100C00003490216D1FE0E16B09B120468847606D8B
:100C100000282BD0606DC00714D0052084F8350063
:100C20002068016821F0010101600098401C0090DB
:100C3000B84203D820680068C007F6D184F8358030
:100C400084F83490E16C002910D001B02046BDE852
:100C5000F04308470168C905D5D4016821F01001A7
:100C6000016084F8358084F83490CCE7BDE8F883DF
:100C7000100000202DE9F041044600F055F9064629
:100C80005CB1022084F83500002584F834502068D7
:100C9000016821F0010101600DE00120BDE8F08153
:100CA00000F042F9801B052805D92020606503204B
:100CB00084F83500F2E720680068C007F0D12268A8
:100CC000116820480140D4E901031843D4E90336F0
:100CD0003343184363691843A3691843E36918430E
:100CE000236A18430843616A042903D1D4E90B132A
:100CF00019430843106020684069666A20F00701C4
:100D000030460E43012704280CD1A06A0643E06A4E
:100D100040B12046FFF748FD20B14020606584F8CF
:100D20003570BAE7206846612046FFF729FD94F840
:100D30005C203F2191408160656584F8357000201A
:100D4000ACE700003F8010F02DE9F84FDFF8B8A1C4
:100D50000022012403254FF00F090AF1040BAAF128
:100D6000040E00BF0B6804FA02F63340B34273D19D
:100D70000F7907F00307012F01D0022F16D18768E2
:100D80004FEA420805FA08FC27EA0C07D1F80CC024
:100D90000CFA08FC4CEA070CC0F808C04768B743D7
:100DA0000E79C6F3001696403E4346600E79F64330
:100DB000B6070DD0C768560005FA06FC27EA0C07EF
:100DC000D1F808C00CFA06FC4CEA070CC0F80CC0BD
:100DD0000E7906F00306022E10D1D60800EB860825
:100DE000D8F8206057074FEAD76C09FA0CF7BE43D2
:100DF0000F6907FA0CF73743C8F8207006684FEA06
:100E0000420C05FA0CF7BE430F7907F0030707FA07
:100E10000CF7374307604E6816F4403F6DD03B4EE9
:100E2000376847F480473760366822F0030706F4D6
:100E300080460096364E07EB060CDCF808689707EC
:100E40003F0F09FA07F826EA0806DFF8C880404590
:100E500003D14FF000081EE04FE0DFF8BC804045B2
:100E600002D14FF0010816E0DFF8B080404502D112
:100E70004FF002080FE0DFF8A880404502D14FF0A4
:100E8000030808E0DFF89C80404502D14FF00408D9
:100E900001E04FF0070808FA07F848EA0608CCF81E
:100EA0000888DAF800605746D1F804C09E435FEA2C
:100EB000CC2C00D51E433E60DBF800605F46D1F8C5
:100EC00004C09E435FEA8C2C00D51E433E60DEF8D2
:100ED00000607746D1F804C09E435FEA8C3C00D5A1
:100EE0001E433E60084F083F3E68D1F804C09E4351
:100EF0005FEACC3C00D51E433E60521C102AFFF432
:100F000031AFBDE8F88F0000083C01404438024092
:100F1000003001400000024000040240000802408E
:100F2000000C024000100240014880687047000039
:100F300004000020024881680278114481607047F3
:100F4000040000200B4810B5016841F400710160F5
:100F5000016841F480610160016841F480710160C1
:100F6000032000F099F80F2000F006F800F04AF88E
:100F7000002010BD003C024030B505461C4887B03B
:100F80000024016841F001010160006806A900F039
:100F90000100009001A800F0D5F900F003FA15490E
:100FA000154AB0FBF1F11548491E026040F2E732E4
:100FB000C0E90324C0E90114846100F0B3FE040019
:100FC00012D10E4800F0DCFE04000DD1192000F013
:100FD00035F8102D07D200222946192000F03CF8E0
:100FE0000748056000E0012407B0204630BD00003E
:100FF0004438024040420F0000000140040300203A
:10100000080000200C4882B0016841F48041016072
:10101000006800F4804000900748001F016841F01C
:10102000805101600068002200F0805000900F2184
:10103000901E02B000F010B844380240002809DBCE
:1010400000F01F02012191404009800000F1E020E2
:10105000C0F8001170470000F0B40E4B1B680C463E
:10106000C3F30223C3F10705042D00D90425191D7C
:10107000072901D2002300E0DB1E012606FA05F154
:10108000491E214099409E40761E16403143F0BCD7
:1010900001F01FBE0CED00E0064900F007020868F1
:1010A0004FF6FF03184040EA0220034A104308604D
:1010B000704700000CED00E00000FA052DE9F84350
:1010C000044600684FF00109C1074FF0000601D146
:1010D000400729D5DFF82081C8F86860FFF724FFB2
:1010E0000746464D05E000BFFFF71EFFC01B022864
:1010F00059D828680001F7D4A068217B800140EA14
:101100000170616808433D4984310860C8F86890FF
:10111000FFF70AFF074604E0FFF706FFC01B02289F
:1011200041D828680001F7D52078800752D5334888
:101130004030016841F0805101600068304D00F09E
:1011400080500090286840F480702860FFF7ECFE23
:10115000074604E0FFF7E8FEC01B022823D82868F2
:10116000C005F7D5254D7035286810F4407020D0A3
:10117000218A01F4407181421BD02868214920F462
:101180004070C1F800900E6028602868C00710D039
:10119000FFF7CAFE064641F2883707E0FFF7C4FEB4
:1011A000801BB84202D90320BDE8F8832868800775
:1011B000F4D521691148C1F301220830032A12D065
:1011C000016821F4F81101602868218AC1F30B013C
:1011D000084328602078000703D50B49207DC1F81B
:1011E000E0010020E0E70268084B22F4F812194001
:1011F0000A430260E8E7000000004742003802406E
:1012000000700040400E474200104742FFFCFF0FB5
:101210002DE9F0470E46050065D0DFF81481D8F8B7
:101220000000F7B200F00700B04207D288F8007063
:10123000D8F8000000F00700B04254D128683D4CB7
:10124000810712D5400703D5206840F4E0502060A4
:101250002878000703D5206840F4604020602068AB
:10126000A96820F0F000084320602878C0072DD03E
:10127000304968680839012812D0022813D00328A1
:1012800011D00968890700292DDA216821F00301AE
:1012900001432160FFF748FE814641F2883A0EE0A3
:1012A00009688903EFE709688901ECE7FFF73CFE6D
:1012B000A0EB0901514502D90320BDE8F087206861
:1012C000696800F00C00B0EB810FEFD1D8F8001086
:1012D000404601F00701B14207D90770006800F0ED
:1012E0000700B04201D00120E7E72878400705D584
:1012F0002068E96820F4E05008432060287800075F
:1013000006D52068296920F4604040EAC1002060C9
:1013100000F058F82168084AC1F30311515CC84035
:101320000649086006480068FFF726FE0020C4E76B
:10133000003C0240083802404045000810000020F0
:10134000080000200F2202600C4A136803F0030318
:101350004360136803F0F0038360136803F4E05301
:10136000C36012684FF4E05303EAD20202610448FA
:10137000006800F00700086070470000083802406D
:10138000003C02400448054900680968044AC1F36A
:101390008221515CC840704710000020083802408C
:1013A000504500080448054900680968044AC1F32B
:1013B0004231515CC840704710000020083802409C
:1013C00050450008154810B5006810F00C0214488C
:1013D00013D01449042A0FD0082A0ED10F4C241F11
:1013E0002268236802F03F025B0207D52068C0F341
:1013F0008810A0FB010106E0084610BD2168C1F37A
:101400008811A1FB00010023FEF796FF2168C1F3BC
:101410000141491C4900B0FBF1F010BD0838024001
:101420000024F40040787D012DE9F84F04006ED0CF
:101430002078DFF84C93C007A9F104054AD009F1E0
:1014400004000168C1F38101012908D00068C0F3DC
:10145000810002280AD1D9F80000400206D5286888
:10146000800337D560680028E1D033E06068B0F5CC
:10147000803F10D0B0F5A02F286810D020F4803025
:101480002860286820F4802028606068A8B1FFF7F1
:101490004BFD06460DE0286840F48030F4E740F448
:1014A00080202860F7E700BFFFF73EFD801B64281F
:1014B00073D828688003F7D50CE0FFF735FD0646A2
:1014C00005E000BFFFF730FD801B6428F0D82868D6
:1014D0008003F7D42078DFF8AC8280074FF0000A51
:1014E0003ED5A748001D016811F00C0F08D0006818
:1014F000C0F3810002280BD1D9F80000400207D4C4
:101500002868800716D5E068012800D112E033E191
:10151000E068B8B10120C8F80000FFF705FD0646F5
:1015200005E000BFFFF700FD801B0228C0D8286837
:101530008007F7D52868216920F0F80040EAC1004B
:1015400028600DE0C8F800A0FFF7EEFC064604E0B6
:10155000FFF7EAFC801B02281FD828688007F7D411
:101560002078000722D5864F87486169703771B1AE
:1015700001210160FFF7D8FC064604E0FFF7D4FC28
:10158000801B022809D838688007F7D50EE0C0F81C
:1015900000A0FFF7C9FC064605E082E0FFF7C4FCA7
:1015A000801B02287DD838688007F7D42078400750
:1015B00068D5DFF8CCB100270BF13C0BDBF800005D
:1015C000C0000BD4DBF8001041F08051CBF80010C4
:1015D000DBF80000012700F0805000906B4E30686F
:1015E000C00510D4306840F480703060FFF79CFC78
:1015F000009005E0FFF798FC0099401A022850D8A7
:101600003068C005F6D55E4EA0686C3601280FD054
:101610000528306810D020F001003060306820F0DC
:1016200004003060A068B8B1FFF77EFC00900FE0C6
:10163000306840F00100F4E740F004003060F7E764
:10164000FFF772FC0099411A41F28830814266D856
:1016500030688007F4D50EE0FFF766FC009007E0E5
:10166000FFF762FC0099411A41F28830814256D856
:1016700030688007F4D42FB1DBF8001021F08051DE
:10168000CBF80010A069C8B33D49091D0968C1F332
:10169000810102294AD00228504607D0C8F86000CC
:1016A00000E03CE0FFF740FC04463BE04746C8F85A
:1016B0006000FFF739FC064605E000BFFFF734FC89
:1016C000801B02282BD828688001F7D4D4E90701B1
:1016D0000843A16A2E4A490802EB0141626A41EAC5
:1016E0008211084394F82C1040EA0161C9F80010F7
:1016F00001203866FFF718FC044606E03EE000BF14
:10170000FFF712FC001B022809D828688001F7D5D2
:1017100034E000BFFFF708FC001B022802D90320B9
:10172000BDE8F88F28688001F4D427E00128F7D0BD
:10173000D9F80000E26900F4800191421CD1226ACC
:1017400000F03F01914217D147F6C071626A014033
:10175000B1EB821F10D1A26A4FF0FF3300F4403189
:1017600003EB5202B1EB024F06D194F82C1000F0BB
:101770007060B0EB016F01D00120D1E70020CFE70E
:101780000438024000004742800E4742007000408B
:101790000000FFFF2DE9F84389463D494FF4FA4C1C
:1017A0004FF47A730F68B7FBFCF159430091017F46
:1017B000012965D001250577022141770368CA21F7
:1017C000596203685321596201688B684FF0FF0426
:1017D0005FEA43584FF000034FF003060CD500BFFB
:1017E000DDF80080B8F10108CDF800804AD0D1F8CA
:1017F0000C805FEA4878F3D4D1F8088028F4806838
:10180000C1F808800168D1F80C8008F0800868F4FD
:101810009068C1F80C80B7FBFCF14FF47A777943FC
:1018200000910168009F7F1E00972BD0CF687F0733
:10183000F8D58E6826F007068E6001688E6816431C
:101840008E600268C2F8149012490A6842F480025D
:101850000A60104908310A6842F480020A6001688F
:101860008A6842F480428A6001688A6842F4806231
:101870008A6001684C62457703770020BDE8F883F1
:101880000220FBE74C62467703770320F6E700006F
:1018900010000020003C01407047000010B50A49CC
:1018A00004464FF4800008602068C168490508D5E7
:1018B000C16801F0800161F49061C1602046FFF7CA
:1018C000EBFF0120607710BD143C014010B504000F
:1018D00002D0607F10B106E0012010BD002020770B
:1018E000204600F041F8022060772068C168C943B3
:1018F000C90632D5CA214162216853204862204678
:1019000000F02CFF20BB20688168164A11408160DE
:101910002168886862681043D4E904231A4310439D
:1019200088602168E068086120680169228941EACD
:1019300002410161204600F035FF48B921680A6C78
:1019400022F480220A6421680A6CA3691A430A649B
:101950002268FF21516208B110BD0020012161778A
:1019600010BD0000BFFF8FFF10B586B004461821E0
:101970006846FEF7A5FD0D492068884214D1022073
:101980000090000204906846FFF798FB08B1FEF74C
:1019900036FF074901200860002205210320FFF7D8
:1019A0005BFB0320FFF74AFB06B010BD0028004098
:1019B0003C0E474270B50446007F0B46012819D003
:1019C0000126267702206077B2B19878D97840EA6C
:1019D000014558781978000240EA413005432168F2
:1019E000CA204862216853204862204600F0B6FEB3
:1019F000D0B122E0022070BD5878C10603D500F0B6
:101A0000EF000A305870D87800F09CFE0204587835
:101A100000F098FE42EA0022987800F093FE02431C
:101A2000187842EA4035DAE7074805402068456003
:101A3000204600F0B7FE00B966772268FF215162A8
:101A40000021217770BD00003FFFFF002DE9F0412C
:101A50000446007F0D46012823D04FF0010884F88A
:101A60001C80022060772068002780684FEA406071
:101A7000D2B1002800DBEF70A878297840EA01464F
:101A80006878E978000240EA815006432168CA205C
:101A90004862216853204862204600F05FFEB8B1DA
:101AA0002CE00220BDE8F081002800DBEF702878F0
:101AB00000F048FE0204687800F044FE42EA00228A
:101AC000A87800F03FFE0243E87842EA8056DDE75E
:101AD0000D480640206806602068816821F4802156
:101AE0008160D5E90301084321688A681043886052
:101AF000204600F057FE08B984F81D802268FF21B7
:101B000051622777CEE700007F7F7F0070B50446E3
:101B10000B482168C860FFF707FA05464FF47A764C
:101B200007E000BFFFF700FA401BB04201D90320D5
:101B300070BD2068C0688006F4D5002070BD00002C
:101B40005F3F010070B5040009D0606A002540B114
:101B500025616561A56294F8510040B10CE0012057
:101B600070BD6068B0F5827FF4D0E561F2E784F87B
:101B70005050204600F044F8022084F851002068BC
:101B8000016821F040010160A088218900F4827081
:101B900001F404410843A18901F400610843217C58
:101BA00001F002010843217D01F001010843218B6E
:101BB00001F400710843217F01F03801084394F8D3
:101BC000201001F080010843218D01F400510843E9
:101BD00021680860A069042101EA104094F82410EB
:101BE00001F010010843216848602068C16921F4B0
:101BF0000061C1616565012084F85100002070BD5D
:101C000070B586B0064614216846FEF759FC204997
:101C1000306888423AD11F480025016841F480515C
:101C20000160006800F4805005901A48143801687B
:101C300041F0020101600068694600F00200059071
:101C4000282000900220CDE9010503200390052003
:101C500004901148FFF778F8114C104820604FF0BD
:101C6000806060604020C4E90205000120614000FE
:101C700060618000C4E90605256220466562FEF7C2
:101C8000F9FF08B1FEF7BBFDB464A66306B070BDF2
:101C900000300140443802400004024040640240E9
:101CA000540100207047704770B590F83C20012A1D
:101CB0002CD0012480F83C40022280F83D200368AB
:101CC0005A689D6822F070060A6832435A60104BC9
:101CD00002689A420ED0B2F1804F0BD00D4B9A425F
:101CE00008D00D4B9A4205D00C4B9A4202D00C4BB7
:101CF0009A4204D1496825F080031943916080F825
:101D00003D40002180F83C10084670BD022070BDA7
:101D1000000001400004004000080040000C0040AA
:101D20000040014010B5040003D094F83D0010B10C
:101D300007E0012010BD002084F83C00204600F0A0
:101D40001EF8022084F83D00211D206800F0B0FD3F
:101D5000012084F8460084F83E0084F83F0084F8AF
:101D6000400084F8410084F8420084F8430084F87D
:101D7000440084F8450084F83D00002010BD704701
:101D800090F83D10012901D001207047022180F810
:101D90003D100168CA6842F00102CA6000680E493D
:101DA00088420ED0B0F1804F0BD00C49884208D049
:101DB0000B49884205D00B49884202D00A49884223
:101DC00004D1816801F00701062903D0016841F0C0
:101DD0000101016000207047000001400004004044
:101DE00000080040000C00400040014070472DE911
:101DF000F04104460068C66805694FF00007A9076E
:101E000013D5B10711D5F91E016101202077206893
:101E100080698007204602D0FFF7E8FF04E000F069
:101E2000A7F8204600F04CF92777680716D5700709
:101E300014D521686FF00400086102202077206823
:101E4000806910F4407F204602D0FFF7CFFF04E006
:101E500000F08EF8204600F033F92777280715D5D3
:101E6000300713D521686FF008000861042020773F
:101E70002068C0698007204602D0FFF7B7FF04E062
:101E800000F076F8204600F01BF92777E80616D513
:101E9000F00614D521686FF0100008610820207743
:101EA0002068C06910F4407F204602D0FFF79EFFF3
:101EB00004E000F05DF8204600F002F92777E8071B
:101EC00008D0F00706D021686FF0010008612046B5
:101ED00000F0F8F8280608D5300606D521686FF01E
:101EE000800008612046FFF7DDFE680608D5700611
:101EF00006D521686FF040000861204600F0ECF83C
:101F0000A8060AD5B00608D521686FF02000086140
:101F10002046BDE8F041FFF7C6BEBDE8F0810000F5
:101F200010B586B0044614216846FEF7C9FA0D497B
:101F30002068884214D10C480021026842F0020255
:101F40000260006800F0020005900120009002206D
:101F5000CDE90101CDE9031069460448FEF7F4FE1E
:101F600006B010BD000400403038024000040240BA
:101F7000704770B5044690F83C0000260D460128D5
:101F80000FD0012084F83C006AB1042A1DD0082A31
:101F90002FD00C2A3FD00126002084F83C00304688
:101FA00070BD022070BD206800F0D4FC20688169FB
:101FB00041F0080181612068816921F0040181619B
:101FC000206881692A69114311E0206800F0EAFC69
:101FD0002068816941F4006181612068816921F490
:101FE00080618161206881692A6941EA02218161F9
:101FF000D2E7206800F002FD2068C16941F00801C5
:10200000C1612068C16921F00401C1612068C16912
:102010002A69114311E0206800F01CFD2068C169A5
:1020200041F40061C1612068C16921F48061C1612E
:102030002068C1692A6941EA0221C161ACE710B593
:10204000040003D094F83D0010B107E0012010BD5A
:10205000002084F83C00204600F01EF8022084F89E
:102060003D00211D206800F023FC012084F846007B
:1020700084F83E0084F83F0084F8400084F8410072
:1020800084F8420084F8430084F8440084F8450052
:1020900084F83D00002010BD08B50068064988425C
:1020A00008D10648016841F002010160006800F0B3
:1020B0000200009008BD00000004004040380240CB
:1020C0007047000000680349884201D1FEF732BF23
:1020D00070470000000001407047704770470000E3
:1020E000F8B5016804460868CA684B6910F00F0F1C
:1020F0004FF0000559D003F0010602F49077374302
:1021000065D0C10705D0D10503D5616C41F001014F
:102110006164410705D5D90703D0616C41F0020124
:102120006164810705D5D90703D0616C41F00401D2
:102130006164010707D502F02001314303D0616CCF
:1021400041F008016164616C00293AD0800604D531
:10215000900602D5204600F0CEFC20684069616CF4
:10216000C0F38010090700D460B3204600F09CFC47
:1021700020684069400621D52068143050E8001FCF
:1021800021F0400140E80012002AF5D1E06BA8B12F
:102190006E490165E06BFEF78AFC002811D0E06B08
:1021A000016D01B0BDE8F040084783060FD59306E6
:1021B0000DD52046BDE8F84000F09DBC2046FFF755
:1021C0008DFFF8BD2046FFF789FF6564F8BD266BDB
:1021D0002023012E7DD1C6067BD5D60679D5086889
:1021E0004868009048694FF00206400641D5E16B0F
:1021F000086840680004000CE8D0A28D8242E5D94E
:10220000E085C869B0F5807F2DD020680C3050E89B
:10221000001F21F4807140E80012002AF5D12068E7
:10222000143050E8001F21F0010140E80012002A9C
:10223000F5D12068143050E8001F21F0400140E83B
:102240000012002AF5D184F84230256320680C3052
:1022500050E8001F21F0100140E80012002AF5D1DB
:10226000E06BFEF7DBFB6663A08DE18D401A81B267
:102270002AE0A08DE18D401A81B2E08D0028A5D022
:102280000029A3D022680C3252E8000F20F490708D
:1022900042E80007002FF5D12068143050E8002FE5
:1022A00022F0010240E80027002FF5D184F84230E7
:1022B000256320680C3050E8002F22F0100240E81F
:1022C0000023002BF5D166632046FFF706FFF8BD1B
:1022D000FFE705062BD5150629D594F841002128DE
:1022E000F5D1A068B0F5805F01D12069B0B1206A56
:1022F000411C2162216800784860E08C401E000487
:10230000000CE084E3D12068C16821F08001C16045
:102310002068C16841F04001C160D8E7206A0088A8
:10232000C0F308004860206A801C2062E5E7400690
:10233000CDD55006CBD5CA68204622F04002CA60EF
:1023400084F8413000F0ABF8C1E70000992A00089A
:1023500070B5040004D094F84100002510B106E0E7
:10236000012070BD84F84050204600F023F824205E
:1023700084F841002068C16821F40051C160204602
:1023800000F01AFC2068016921F490410161206885
:10239000416921F02A0141612068C16841F400517E
:1023A000C1606564202084F8410084F842006563C0
:1023B000002070BD2DE9F04186B006461421684624
:1023C000FEF77EF830493068884259D12F48002402
:1023D000016841F010010160006800F010000590F4
:1023E0002A481438016841F001010160006869461B
:1023F00000F0010005904FF4C06000900220CDE98C
:10240000010403200390072004902148FEF79CFC60
:10241000214D20484FF000672860C5E901744FF452
:102420008068C5E903486C61AC61EC612C622846A8
:102430006C62FEF71FFC08B1FEF7E1F9F563AE63CD
:10244000154D144860353030E5E802074020A5E816
:102450001101114845F814496030AC61EC612C62FF
:102460006C62FEF707FC08B1FEF7C9F9B5630022FC
:1024700005212520AE63FEF7EFFD2520FEF7DEFDEA
:1024800006B0BDE8F0810000001001404438024071
:1024900000000240886402404402002070477047F8
:1024A000FEE700007FB500241548009401940294D3
:1024B0001249039401604FF48031C0E901140461B2
:1024C000047680F820400F49C0E90A140125C5614F
:1024D000C46080F830404561FEF746FA08B1FEF767
:1024E0008EF90095CDE9015469460548FEF78AF951
:1024F000002801D0FEF783F97FBD000000200140D5
:10250000940000200100000F114808B5016841F453
:10251000800101600068002200F480000090052125
:102520003A20FEF799FD3A20FEF788FD00220521AA
:102530004420FEF791FD4420FEF780FD0022052196
:102540004620FEF789FDBDE808404620FEF776BD2F
:102550003038024010B5044A0021044800F01EFC47
:102560000349086010BD000014450008DD2700087D
:10257000000000200D4808B5016841F00401016029
:10258000016801F004010091016841F0010101605E
:10259000016801F001010091016841F00201016050
:1025A000006800F00200009008BD000030380240D2
:1025B00010B586B014216846FDF782FF2348002439
:1025C00021490594C0E900147F218160FF21C0E901
:1025D000031444618461FFF779F908B1FEF70FF93C
:1025E00011208DF8000059208DF8010055208DF83C
:1025F000020003940122694614480494FFF726FA66
:1026000008B1FEF7FCF807208DF8140005208DF8BE
:10261000150021208DF8160023208DF817000122C7
:1026200005A90A48FFF7C6F908B1FEF7E8F8002245
:102630004FF4FA610548FFF7ADF8002801D0FEF726
:10264000DEF806B010BD000000280040DC000020CD
:10265000104810B50E4901604FF4827141600021AD
:1026600002228160C0E90312012242615202C0E9E4
:1026700006210162416281620A21C162FFF762FAAA
:10268000002803D0BDE81040FEF7B9B810BD000027
:1026900000300140FC00002010B58AB000240794EF
:1026A0001C2168460894FDF70BFF16481449016089
:1026B0006321C0E901144FF49671C0E903148461E9
:1026C000FFF7BDFC08B1FEF79AF8079407A90D487B
:1026D0000894FFF7E9FA08B1FEF791F86020CDE918
:1026E000000402940822694606480494FFF741FC5E
:1026F00008B1FEF784F80348FFF712FC0AB010BDDA
:1027000000040040B40100200C4810B50A490160E3
:102710004FF416514160002181600C22C160C0E974
:1027200004128161C161FFF713FE002803D0BDE8E8
:102730001040FEF764B810BD00100140FC010020FD
:10274000FEE7FEE7002102E00A38C0B2491C0A2871
:10275000FAD2090740EA1160704700002DE9F04104
:10276000044600680025C168490618D4C16841F0D4
:102770008001C160FEF7D8FB06464FF47A78042743
:1027800007E000BFFEF7D0FB801B404501D967770B
:1027900001252068C068400601D4002DF2D02846EB
:1027A000BDE8F08170B5044600680025C16821F0DD
:1027B0008001C16020688068800606D42046FFF74B
:1027C000A5F910B1042060770125284670BD0000EE
:1027D0000148FFF763B80000DC000020012000F092
:1027E000A1FAFBE710B54FF0E020006901F0CEFC44
:1027F000012803D0BDE8104001F0FCB910BD000075
:1028000030B593B030216846FDF75AFE14210CA86C
:10281000FDF756FE1D480024016841F0805101601B
:10282000006800F0805011901948016841F440415F
:1028300001600068102100F4404011900A200090CF
:102840000120CDE903010225CDE905050820CDE9E8
:1028500007406420CDE9090504200B906846FEF787
:10286000E3FD08B172B6FEE70F20CDE90C054FF489
:102870008050CDE90E4003210CA81094FEF7C8FC4F
:10288000002801D072B6FEE713B030BD40380240D8
:10289000007000400248016841F470010160704717
:1028A00088ED00E00148FFF7A2BA00000403002011
:1028B000F0B50268204B214C9F03214D214E9842D8
:1028C00007D0B84205D0A04203D0A84201D0B04200
:1028D00004D122F0700C4A6842EA0C02984210D0EF
:1028E000B8420ED0A0420CD0A8420AD0B04208D0C4
:1028F000154CA04205D0154CA04202D0144CA04269
:1029000003D122F44074CA6822434C6922F0800249
:10291000224302608A68C2620A688262984201D1D8
:1029200009690163012141610169C90703D0016996
:1029300021F001010161F0BD0000014000040040F0
:1029400000080040000C00400040014000440140ED
:102950000048014030B5036A026A22F001020262B7
:102960004268846924F073050C682C4323F0020547
:102970008B682B430A4DA8420BD123F00805CB6886
:1029800022F440722B434D6923F0040315438A69F6
:102990002A434260846149684163036230BD00009C
:1029A0000000014030B5026A036A23F0100303629D
:1029B000436884690D6824F4E64444EA05248D687C
:1029C00022F0200242EA05120B4DA8420ED1CD683A
:1029D00022F0800242EA05124D6923F4406343EA83
:1029E00085038D6922F0400243EA850343608461D8
:1029F00049688163026230BD0000014030B5036A5E
:102A0000026A22F4807202624268C46923F400738D
:102A100024F073050C682C438D6843EA05230C4DA4
:102A2000A8420ED1CD6823F4006343EA05234D6923
:102A300022F4405242EA05128D6923F4806342EA8F
:102A400005124260C4614968C163036230BD000081
:102A50000000014030B5046A026A22F4805202622A
:102A60004268C3690D6823F4E64343EA05238D6891
:102A700024F4005444EA0534064DA84204D14D69BB
:102A800022F4804242EA85124260C36149680164CF
:102A9000046230BD0000014010B5806B0021C1858B
:102AA000C184FFF71BFB10BD01680C3151E8002FFA
:102AB00022F4907241E80023002BF5D10168143113
:102AC00051E8002F22F0010241E80023002BF5D14C
:102AD000016B012909D101680C3151E8002F22F066
:102AE000100241E80023002BF5D1202180F842108C
:102AF00000210163704708B590F84210222901D0E7
:102B0000022008BD82684FF480539A4201D10169C6
:102B100021B1816A9A421BD04AB10AE00268816AF7
:102B20005268C2F308020A80816A891C08E00269BF
:102B300072B10268526802F07F020A70816A491C11
:102B40008162C18D491E0904090CC18503D01BE0B7
:102B500002685268F1E70168CA6822F02002CA6080
:102B60000168CA6822F48072CA6001684A6922F06A
:102B700001024A61202180F8421000214163026B6A
:102B8000012A03D0FFF78AFC002008BD0163016819
:102B90000C3151E8002F22F0100241E80023002BF5
:102BA000F5D101680A68D20602D50A684968009121
:102BB000818DFFF792FAE7E770B504460068016976
:102BC000E26821F44051114301612169A068E26982
:102BD00008436169114308432168CA6849F20C63DC
:102BE0009A430243CA6020684169A26921F4407196
:102BF0001143416131492068884202D030498842FE
:102C000002D1FEF7CFFB01E0FEF7BCFBE269002337
:102C1000192164253226B2F5004F626828D0A0FB46
:102C20000101930F9200FDF787FB0146B0FBF5F021
:102C30006FF01802504301EB800006EB0010B0FB70
:102C4000F5F000F0F002B1FBF5F002EB0012B1FB81
:102C5000F5F06FF01803584301EB800006EB00100D
:102C6000B0FBF5F000F00F0021681044886070BDE3
:102C7000A0FB010192185B41FDF75EFB0146B0FB32
:102C8000F5F00201B1FBF5F06FF01803584301EBCA
:102C9000800006EBC000B0FBF5F000F0F80002EB9E
:102CA0004002B1FBF5F0584301EB800006EBC00099
:102CB000B0FBF5F000F00700D6E70000001001407F
:102CC000001401400148FFF70BBA0000FC0100208E
:102CD000FEE70907090E002804DB00F1E02080F878
:102CE0000014704700F00F0000F1E02080F8141D80
:102CF0007047FEF727F9FFF783FDFFF73BFCFFF76F
:102D000003FCFFF7CFFBFFF753FCFFF7A1FCFFF736
:102D1000C3FCFFF7F9FC00F013F8FFF71BFC00F011
:102D200021F8FEE710B5EFF3058111B16FF005044E
:102D300003E0002408B100F0FDFD204610BD0000B6
:102D4000EFF3058010B16FF005007047044801688B
:102D500011B14FF0FF307047012101600020704732
:102D60006400002010B5EFF3058010B16FF005008E
:102D700010BD08480168012902D04FF0FF3010BD96
:102D8000054A002182F8141D0221016000F03AFE7C
:102D9000002010BD640000200BE000E02DE9FF41A1
:102DA0004FEA01034FF00005EFF30581039549BB9E
:102DB00040B38027182100244AB3166806B1344670
:102DC00096691EB13146761E382E02D21679F60764
:102DD00003D0002004B0BDE8F081566906B1B70801
:102DE000D2F808C0BCF1000F0DD0D5685C2D18D307
:102DF00012693AB136B18DE806103A46214601F023
:102E00009AF903900DE0D6685EB912694AB903AA2F
:102E1000CDE90012BAB2214601F060F9012800D0D4
:102E200003950398D6E700002DE9F041134C0F46B7
:102E30000546E6682068001D00F046FC681C07D1C6
:102E400037B12168BDE8F0410D48091D00F08EBC86
:102E500020683544B5424560216805D2A06BBDE8C5
:102E6000F041091D00F06ABC606B091D00F066FCB2
:102E7000A06A854200D2A562BDE8F081140000205E
:102E80003C0800202DE9F041054600F07BFC2D4C6C
:102E9000A068401CA06020682B4F10B1606930B35F
:102EA0002BE02560A068012827D1002606EB8600CC
:102EB00007EB800000F034FC761C382EF6D3234854
:102EC00000F02EFC2148143000F02AFC1F48283066
:102ED00000F026FC1D483C3000F022FC1B4850301E
:102EE00000F01EFC194860631430A06305E0206800
:102EF000E96AC06A884200D82560606A401C606246
:102F00006864E86A2169884200D9206100EB80008A
:102F100007EB8000291D00F029FC00F053FC6069DC
:102F200000280CD02068E96AC06A884207D20849A4
:102F30004FF080500860BFF34F8FBFF36F8FBDE835
:102F4000F0810000140000208C030020EC0700201A
:102F500004ED00E038B500F015FC104C2068C8B94D
:102F60000F4800F0DDFB0E48143000F0D9FB0C4890
:102F7000E060143020610A4B0020F03B009003F128
:102F8000500210210A2000F04BFE206010B105A174
:102F900000F09AFCBDE8384000F014BC500000205E
:102FA00040090020546D72510000000030B4026CE2
:102FB0000B46002A0BD0C1681144C1608468A1424D
:102FC00001D30168C16030BC1846FDF72CBA30BC93
:102FD00070472DE9F041856B174604460026026CC8
:102FE00082B1C7B1E068FDF71EFAE168206C091AEA
:102FF000E1602268914202D2A168081AE060022FC3
:1030000016D017E02068A8B9A06801F03FF906467D
:103010000020A0600EE06068FDF705FA216C606892
:1030200008446060A168884204D32068606001E0C1
:1030300005B16D1E6D1CA5633046BDE8F08110B56D
:10304000044690F8590058B101280CD002280FD03E
:10305000502080F31188BFF34F8FBFF36F8FFEE7CF
:10306000206B00F0C3FB2046BDE8104000F0BEBB63
:1030700010BD000010484FF47051420706D0C01D2B
:103080000D4920F00700411AC1F570510B4A002389
:103090000144C2E900030839183A21F00701116020
:1030A0004B600B600B1AC0E9001393604FF00040B7
:1030B0005360506170470000201000208000002005
:1030C000154E164CA6F29C474FF08058DFF85090F2
:1030D00012E000BF00F056FBF068C568281D00F044
:1030E000F3FAA068401EA0606068401E606000F0B7
:1030F00069FB2846FFF7A3FF60680028EAD138681B
:10310000012805D9C9F80080BFF34F8FBFF36F8F37
:1031100000F004FBF0E70000280800201400002065
:1031200004ED00E070B51D46049C51B1C4F80020C8
:10313000C4E90F010121204600F0A6FD84F84C509F
:1031400070BD2460F4E700002DE9F05F8846DDE9FA
:103150000B941546834691009A460A9EA522206B41
:10316000FDF7A6F96FF00301206B01EB8501084420
:1031700020F00707780707D0502080F31188BFF3AD
:103180004F8FBFF36F8FFEE70025B8F1000F0FD010
:103190005FF00000221818F8001082F8341018F8B8
:1031A000001011B1401C1028F4D384F8435001E002
:1031B00084F83450382E00D33726E662C4E913650C
:1031C000201D00F0B8FA04F1180000F0B4FA2461F0
:1031D000C6F138006462A061656584F858505246B3
:1031E0005946384600F05AFA2060B9F1000F01D074
:1031F000C9F80040BDE8F09F30B5114900E0114624
:103200000A688242FBD34B685C18844203D1406851
:1032100018444860084643681C18944209D1084C79
:10322000183C2468A24209D052681A4442600A68D5
:1032300012680260814200D0086030BD0460F9E786
:103240008000002070B5002441600B4D0061914268
:1032500006D8D11A8269914206D2011D286907E079
:103260009A4203D2994201D3012403E0011DE86888
:1032700000F064FA204670BD5000002010B50446EE
:1032800000F080FAA06B28B15FF0000400F09AFA19
:10329000204610BD0124F9E730B589B03C4D6EE001
:1032A0000498002806DADDE90601059A904704989B
:1032B000002864DB069C606910B1201D00F004FA50
:1032C00003A800F0D7F8024604980A2857D2DFE88E
:1032D00000F00505052D334A05052D3394F8280027
:1032E00040F0010084F828000599A069059B01447D
:1032F0002046FFF7A7FF68B3216A2046884794F865
:10330000280040073BD5002000900598A1690023C4
:1033100042181946204601F0C3F8D8B9502080F36E
:103320001188BFF34F8FBFF36F8FFEE714F8280F9C
:1033300020F00100207022E094F8280040F0010005
:1033400084F828000598A06128B18118134620460A
:10335000FFF778FF13E0502080F31188BFF34F8F01
:10336000BFF36F8FFEE794F82800810703D420464F
:1033700000F03CFA03E020F0010084F8280000226D
:1033800004A9286800F0D4FD002889D109B030BD17
:10339000500000202DE9FC410F46054600F076FB69
:1033A00001A800F067F80446019818B100F0E6FFA4
:1033B000BDE8FC81254EAFB130690068D0B300276D
:1033C000291B3A46306800F093FA00F0D7FF002836
:1033D000EED11F494FF080500860BFF34F8FBFF30D
:1033E0006F8FE5E7A542EBD800F0C8FFF0682746ED
:1033F000C068C468201D00F067F994F828004107F0
:1034000019D5A0692B4641193A462046FFF71AFF05
:10341000A8B100200346014600902A46204601F04C
:103420003FF860B9502080F31188BFF34F8FBFF38E
:103430006F8FFEE707E020F0010084F82800216A82
:1034400020468847B4E70127BAE700005000002073
:1034500004ED00E00648416B096829B1416BC96879
:10346000C9684968816270474FF0FF31FAE7000090
:103470001400002070B5054600F096FE064E044686
:10348000B068844203D200F009F8012000E0002077
:1034900028602046B46070BD50000020F8B5194D7A
:1034A00020E0C068C4680668201D00F00DF9216A9C
:1034B0002046884794F82800400713D5A069304477
:1034C000B04206D924616060211DE86800F036F939
:1034D00008E000200346014600903246204600F0F6
:1034E000DFFF38B1E86801680029DAD12969C5E948
:1034F0000310F8BD502080F31188BFF34F8FBFF346
:103500006F8FFEE75000002008484068401C4FF0D5
:10351000500080F3118804D0BFF34F8FBFF36F8F3B
:10352000FEE7BFF34F8FBFF36F8FFEE788000020E9
:10353000074CE068016841B1C0680021D0F8000084
:10354000FFF728FFFFF7A8FEF3E701210020F7E7C8
:10355000500000202DE9F041044600F013F994F9E1
:10356000455004F1240609E0606A48B1304600F095
:10357000CDFE08B100F00CFA6D1E6DB2002DF3DC2B
:103580004FF0FF3684F8456000F01CF900F0FAF8BF
:1035900094F9445004F1100709E0206948B1384615
:1035A00000F0B4FE08B100F0F3F96D1E6DB2002D0D
:1035B000F3DC84F84460BDE8F04100F003B900009A
:1035C0002DE9F0410546002700F060FA324E3068E0
:1035D00008B9FFF74FFD706905424ED1C5B30835F4
:1035E00068070ED005F00700C0F108000544680721
:1035F00007D0502080F31188BFF34F8FBFF36F8F38
:10360000FEE72DB37068854237D82348183001464D
:103610000C6801E020460C466168A94202D221688C
:103620000029F7D131688C4227D0076821680160F2
:1036300060680837411B10290FD96019420708D06C
:10364000502080F31188BFF34F8FBFF36F8FFEE7D9
:1036500013E041606560FFF7CFFD61687068401A54
:103660007060B268904200D2B0607069014300207F
:10367000C4E90001F068401CF06000F07FFE7807AC
:1036800007D0502080F31188BFF34F8FBFF36F8FA7
:10369000FEE73846BDE8F0816800002010B5031F42
:1036A0004FF080741C601B1F21F001011960191F6D
:1036B000044B0B6014390A60091F6FF00202443892
:1036C0000A6010BD09350008D0E9013201699A602D
:1036D000D0E901235A604A68824201D182684A6077
:1036E000002202610868401E0860086870470000F8
:1036F000034B036003F15C0008608020106070479A
:1037000068090020044B036003F15C0008604FF47B
:103710008070106070470000C40B00207047704735
:1037200000F108014FF0FF32C0E90112C1600161F0
:1037300000210160704700210161704730B50B68BE
:103740005A1C02D000F1080202E0026904E022469D
:10375000546825689D42FAD953684B6099608A6025
:10376000516008610168491C016030BD42684A60CF
:1037700093688B6093685960916008610168491C87
:1037800001607047502080F31188BFF34F8FBFF363
:103790006F8F0A494868401C486001280CD10848CE
:1037A000006810F0FF0F07D0502080F31188BFF39E
:1037B0004F8FBFF36F8FFEE7704700008800002037
:1037C00004ED00E00849486828B1401E486001D176
:1037D00080F311887047502080F31188BFF34F8F1A
:1037E000BFF36F8FFEE700008800002070B500284F
:1037F0002AD0164DA0F1080460686969084207D113
:10380000502080F31188BFF34F8FBFF36F8FFEE717
:1038100022683AB1502080F31188BFF34F8FBFF375
:103820006F8FFEE78843606000F030F96068696878
:10383000084468602046FFF7DFFC2869401C2861C7
:10384000BDE8704000F09ABD70BD00006800002027
:103850004FF0E02000210161816105494FF47A7247
:103860000968B1FBF2F1491E41610721016170470E
:103870001000002010B5FCF73BFD114910280ED3B5
:1038800000F1E02090F8F0030A78904207D250202F
:1038900080F31188BFF34F8FBFF36F8FFEE70948A6
:1038A0000068896800F4E060884207D9502080F3FE
:1038B0001188BFF34F8FBFF36F8FFEE710BD00007D
:1038C000880000200CED00E010B5084B002200BF7E
:1038D00053F832401CB1521C082AF9D310BD43F8EA
:1038E000321003EBC201486010BD00004C03002001
:1038F00070B515460E460446FFF744FF94F9441090
:103900000020491C01D184F8440094F94510491C59
:1039100001D184F84500FFF755FFA06B28B92A466E
:10392000314604F1240000F051F82046BDE8704013
:10393000FFF710BE10B5020014D00F48006B38B16D
:10394000502080F31188BFF34F8FBFF36F8FFEE7D6
:1039500000F09CF800211046FFF766FA00F00EFD1B
:10396000002807D105494FF080500860BFF34F8F02
:10397000BFF36F8F10BD00001400002004ED00E0C5
:1039800002490A6A0260C968416070471400002059
:1039900001490120C86170471400002010B50C4691
:1039A00050B1094909681831FFF7C8FE2046BDE843
:1039B00010400121FFF738BA502080F31188BFF37F
:1039C0004F8FBFF36F8FFEE71400002070B51446D1
:1039D0000D4668B10A4909681831FFF7C7FE0CB1F6
:1039E0004FF0FF3521462846BDE87040FFF71CBA6E
:1039F000502080F31188BFF34F8FBFF36F8FFEE726
:103A00001400002030B587B00024039405AA04A94F
:103A100003A80494FFF76CFEDDE903010094CDE9EF
:103A20000110002315A11748059A00F084FB164DDC
:103A30000028E8621FD000F003FD012809D0401CD7
:103A400019D1502080F31188BFF34F8FBFF36F8FD0
:103A5000FEE7502080F31188BFF34F8FBFF36F8FC5
:103A60004FF0FF30A86201206861EC6007B0BDE84C
:103A7000304000F045B807B030BD000049444C4527
:103A800000000000C1300008140000200248016B53
:103A9000491C01637047000014000020164810B54F
:103AA000016B11B10121C16110BD0021C16101692A
:103AB000124A01E0B9B1491E01EB810352F82330EB
:103AC000002BF7D001EB810302EB830202F1080423
:103AD00053685B685360A34201D15B685360DA6846
:103AE0000260016110BD502080F31188BFF34F8F39
:103AF000BFF36F8FFEE70000140000208C0300204E
:103B00001CB537480168374A914207D1502080F3ED
:103B10001188BFF34F8FBFF36F8FFEE70068314905
:103B2000491E884207D1502080F31188BFF34F8F80
:103B3000BFF36F8FFEE72C4908780190FF200870D3
:103B400008788DF800009DF800009DF8002000F036
:103B5000F000904207D0502080F31188BFF34F8FC0
:103B6000BFF36F8FFEE79DF80000204C00F050007F
:103B700020700720A06005E09DF8002052008DF81D
:103B80000020401E9DF800201206F5D4A0600328F6
:103B900007D0502080F31188BFF34F8FBFF36F8F92
:103BA000FEE74FF44070A060019808700C48203088
:103BB000016841F470010160016841F070410160E9
:103BC000FFF746FE00206060FCF75AFB08480168DA
:103BD00041F040410160FCF73FFB00201CBD0000AC
:103BE00000ED00E071C20F4100E400E08800002019
:103BF00034EF00E010B5502080F31188BFF34F8FF1
:103C0000BFF36F8F00F0D6FA18B104494FF080501F
:103C10000860002080F3118810BD000004ED00E072
:103C200038B5049D18B153B1CAB181B120E050201C
:103C300080F31188BFF34F8FBFF36F8FFEE75020E3
:103C400080F31188BFF34F8FBFF36F8FFEE75020D3
:103C500080F31188BFF34F8FBFF36F8FFEE739B149
:103C6000502080F31188BFF34F8FBFF36F8FFEE7B3
:103C700050241C46012384F846302B460094FFF75D
:103C800051FA204638BD000070B50D46040025D01D
:103C9000FFF778FDD4E90F20216802FB0011A16035
:103CA0000021A163216861600A46D4E90F01401E2A
:103CB00000FB0121E16021464FF0FF3001F8440F85
:103CC000487004F110008DB1FFF72AFD04F12400C3
:103CD000FFF726FDFFF776FD012070BD502080F331
:103CE0001188BFF34F8FBFF36F8FFEE72169002963
:103CF000F0D000F00BFB0028ECD004494FF08050CE
:103D00000860BFF34F8FBFF36F8FE3E704ED00E070
:103D10002DE9FF4782B01D468A464FF00008040097
:103D200003D0BAF1000F08D011E0502080F31188C1
:103D3000BFF34F8FBFF36F8FFEE7206C38B1502079
:103D400080F31188BFF34F8FBFF36F8FFEE7022D13
:103D50000AD1E06B012807D0502080F31188BFF30F
:103D60004F8FBFF36F8FFEE700F010FA3F4F4FF019
:103D700000094FF0805648B9049838B1502080F3BC
:103D80001188BFF34F8FBFF36F8FFEE7FFF7FAFC89
:103D9000A06BE16B884207D3022D05D00498D0B107
:103DA000B8F1000F1AD01EE02A4651462046FFF710
:103DB00010F9616A19B104F1240000F0A7FA20B1EA
:103DC0003E60BFF34F8FBFF36F8FFFF7FBFC012007
:103DD00006B0BDE8F087FFF7F5FC22E06846FFF784
:103DE000CFFD4FF00108FFF7EDFCFFF74FFEFFF7A7
:103DF000C9FC94F94400401C01D184F8449094F922
:103E00004500401C01D184F84590FFF7DBFC04A974
:103E1000684600F029F930B12046FFF79BFB00F01F
:103E2000ADFA0020D4E7FFF7ADFCA06BE16B884250
:103E300013D1FFF7C7FC04F110000499FFF7AEFDA2
:103E40002046FFF787FB00F099FA00289ED13E60DC
:103E5000BFF34F8FBFF36F8F98E7FFF7B3FC204698
:103E6000FFF778FB00F08AFA90E7000004ED00E02D
:103E70002DE9F0471F4690468946040003D0B9F16A
:103E8000000F08D011E0502080F31188BFF34F8F4E
:103E9000BFF36F8FFEE7206C38B1502080F311889C
:103EA000BFF34F8FBFF36F8FFEE7022F0AD1E06B96
:103EB000012807D0502080F31188BFF34F8FBFF344
:103EC0006F8FFEE7FFF7D6FC5020EFF3118680F3EB
:103ED0001188BFF34F8FBFF36F8FA06BE16B8842E8
:103EE00006D3022F04D0002086F31188BDE8F087A6
:103EF00094F94550A06B3A4649462046FFF769F8C9
:103F0000681C04D06D1C84F845500120ECE7606A01
:103F10000028FAD004F1240000F0F8F90028F4D0C9
:103F2000B8F1000FF1D00121C8F80010EDE7000052
:103F30002DE9F747002683B08A46040003D0BAF182
:103F4000000F08D011E0502080F31188BFF34F8F8D
:103F5000BFF36F8FFEE7206C38B1502080F31188DB
:103F6000BFF34F8FBFF36F8FFEE700F00FF9DFF85D
:103F7000F4804FF000094FF0805748B9059838B1E8
:103F8000502080F31188BFF34F8FBFF36F8FFEE790
:103F9000FFF7F8FBA56BC5B151462046FFF706F8C1
:103FA0006D1EA563206950B104F1100000F0AEF958
:103FB00028B1C8F80070BFF34F8FBFF36F8FFFF7C2
:103FC00001FC012006B0BDE8F087059808B11EB1DC
:103FD00006E0FFF7F7FB27E06846FFF7D1FC012674
:103FE000FFF7F0FBFFF752FDFFF7CCFB94F944001D
:103FF000401C01D184F8449094F94500401C01D143
:1040000084F84590FFF7DEFB05A9684600F02CF820
:10401000002820460AD0FFF79DFA00F0AFF92046AD
:10402000FFF72CF90028B3D00020CBE7FFF726F9E3
:1040300090B104F124000599FFF7B0FC2046FFF78A
:1040400089FA00F09BF90028A2D1C8F80070BFF3EC
:104050004F8FBFF36F8F9BE72046FFF77BFA00F08F
:104060008DF995E704ED00E02DE9F0410C460500DF
:1040700011D0C4B1FFF786FB174BDA686E68206871
:10408000911B471C17D02F681B6A9F4219D096427C
:1040900017D8012410E0502080F31188BFF34F8F10
:1040A000BFF36F8FFEE7502080F31188BFF34F8F6F
:1040B000BFF36F8FFEE70024FFF784FB2046BDE8C7
:1040C000F081884205D9401A20602846FFF758FC45
:1040D000F1E700202060DCE7140000202DE9FF5FFD
:1040E0008346DDE90E87994616468A469000FFF71B
:1040F00067FA05001CD05C20FFF762FA040014D0B8
:104100000020256384F85900CDE90240CDE90087FD
:104110004B46324651465846FFF716F82046FEF702
:10412000B1FE012004B0BDE8F09F2846FFF75EFB1A
:104130004FF0FF30F6E7F0B585B0DDE90B640A9D7E
:10414000A6B1DCB15C2700972663022684F859608B
:10415000002604AFCDE90246CDE90057FEF7F4FF93
:104160002046FEF78FFE049805B0F0BD502080F386
:104170001188BFF34F8FBFF36F8FFEE7502080F39E
:104180001188BFF34F8FBFF36F8FFEE7054841697A
:1041900019B1006B18B10020704701207047022050
:1041A00070470000140000200148C06870470000FC
:1041B000140000202DE9F041324C0027206B38B16B
:1041C000A069401CA061FFF7AAFA3846BDE8F0815B
:1041D000E668761CE66013D1606B006838B1502049
:1041E00080F31188BFF34F8FBFF36F8FFEE7606BD3
:1041F000A16B6163A063206A401C2062FFF72AF96B
:10420000A06ADFF88480864209D3606B006890B1B1
:10421000606BC068C568686886420FD2A06220687B
:10422000C06A00EB800158F82100012800D901275D
:10423000A069F8B120E04FF0FF30EFE7281DFFF74D
:1042400043FAA86A18B105F11800FFF73DFAE86AC9
:104250002169884200D9206100EB800108EB8100D0
:10426000291DFFF783FAE86A2168C96A8842CCD31E
:104270000127CAE7FFF753FAE0690028A5D0012714
:10428000A3E70000140000208C03002070B5040098
:104290004FF0000133D01B4D2868844207D05020D6
:1042A00080F31188BFF34F8FBFF36F8FFEE7206D50
:1042B00038B1401E2065E36CE26A9A421FD040B1DB
:1042C0001DE0502080F31188BFF34F8FBFF36F8F35
:1042D000FEE7201DFFF7F8F9E06CE062C0F138005E
:1042E000A061E06A2969884200D92861064900EB8B
:1042F000800001EB8000211DFFF738FA01210846FC
:1043000070BD0000140000208C03002070B5C06850
:10431000C46854B104F118000646FFF7D5F9144DEE
:10432000286B50B13146134815E0502080F31188B6
:10433000BFF34F8FBFF36F8FFEE7201DFFF7C4F968
:10434000E06A2969884200D928610B4900EB8000A6
:1043500001EB8000211DFFF709FAE06A2968C96AAC
:10436000884202D90120E86170BD002070BD0000C4
:1043700014000020140800208C0300202DE9F047D1
:104380002C4D00242746286B38B1FFF7FBF9286B2A
:10439000401E2863286B40B146E0502080F311880E
:1043A000BFF34F8FBFF36F8FFEE7A968224E012046
:1043B000D1B3A6F5916980463068E0B1F068C46871
:1043C00004F11800FFF780F9201DFFF77DF9E06A7E
:1043D0002969884200D9286100EB800109EB81003E
:1043E000211DFFF7C3F9E06A2968C96A8842E3D34F
:1043F000C5F81C80E0E70CB1FFF72CF8AC694CB1B4
:104400004FEA0806FFF7D6FE00B1EE61641EF9D14F
:104410000020A861E86938B1084901273807086019
:10442000BFF34F8FBFF36F8FFFF7CCF93846BDE86E
:10443000F0870000140000201408002004ED00E0C4
:1044400010B586B0FEF786FD114C2068B8B100208B
:104450000390049005AA04A903A8FFF753F9DDE926
:10446000032102208DE8070000230AA10B48059ACA
:10447000FFF761FE606010B106B0012010BD502052
:1044800080F31188BFF34F8FBFF36F8FFEE70000FB
:1044900050000020546D72205376630031350008BF
:1044A0002DE9FF411E46134602000A9D4FF0000011
:1044B00016D0144C2768002F0FD0CDE900130292BC
:1044C000062917DAFFF762FE02284FF000030FD02B
:1044D000002269462068FFF71BFC04B0BDE8F081AC
:1044E000502080F31188BFF34F8FBFF36F8FFEE72B
:1044F0002A46EEE70023324669463846FFF7B8FC05
:10450000EBE70000500000204FF04070E1EE100A91
:10451000704700005845000800000000000000003F
:104520000000000000000000000200001800000071
:104530000000000000000000000610160006101623
:104540000000000000000000010203040607080943
:10455000000000000102030464656661756C745418
:1045600061736B0084450008000000209400000087
:10457000D40100081846000894000020EC51000007
:10458000F001000800000000010000001000000021
:10459000000000000024F400000000000000000003
:1045A000000000000000000000000000000000000B
:1045B00000000000000000000000000000000000FB
:1045C00000000000000000000000000000000000EB
:1045D00000000000000000000000000000000000DB
:1045E00000000000000000000000000000000000CB
:1045F00000000000000000000000000000000000BB
:1046000000000000000000000000000000000000AA
:08461000AAAAAAAA00000000FA
:040000050800019955
:00000001FF
